{
  "contractName": "MerkleTreeWithHistory",
  "abi": [
    {
      "inputs": [
        {
          "internalType": "uint32",
          "name": "_treeLevels",
          "type": "uint32"
        },
        {
          "internalType": "uint32",
          "name": "_blockCount",
          "type": "uint32"
        }
      ],
      "payable": false,
      "stateMutability": "nonpayable",
      "type": "constructor"
    },
    {
      "anonymous": false,
      "inputs": [
        {
          "indexed": false,
          "internalType": "uint32",
          "name": "updateAtBlock",
          "type": "uint32"
        }
      ],
      "name": "RewardUpdate",
      "type": "event"
    },
    {
      "constant": true,
      "inputs": [],
      "name": "FIELD_SIZE",
      "outputs": [
        {
          "internalType": "uint256",
          "name": "",
          "type": "uint256"
        }
      ],
      "payable": false,
      "stateMutability": "view",
      "type": "function"
    },
    {
      "constant": true,
      "inputs": [],
      "name": "ROOT_HISTORY_SIZE",
      "outputs": [
        {
          "internalType": "uint32",
          "name": "",
          "type": "uint32"
        }
      ],
      "payable": false,
      "stateMutability": "view",
      "type": "function"
    },
    {
      "constant": true,
      "inputs": [],
      "name": "ZERO_VALUE",
      "outputs": [
        {
          "internalType": "uint256",
          "name": "",
          "type": "uint256"
        }
      ],
      "payable": false,
      "stateMutability": "view",
      "type": "function"
    },
    {
      "constant": true,
      "inputs": [],
      "name": "currentRootIndex",
      "outputs": [
        {
          "internalType": "uint32",
          "name": "",
          "type": "uint32"
        }
      ],
      "payable": false,
      "stateMutability": "view",
      "type": "function"
    },
    {
      "constant": true,
      "inputs": [
        {
          "internalType": "uint256",
          "name": "",
          "type": "uint256"
        }
      ],
      "name": "filledSubtrees",
      "outputs": [
        {
          "internalType": "bytes32",
          "name": "",
          "type": "bytes32"
        }
      ],
      "payable": false,
      "stateMutability": "view",
      "type": "function"
    },
    {
      "constant": true,
      "inputs": [],
      "name": "levels",
      "outputs": [
        {
          "internalType": "uint32",
          "name": "",
          "type": "uint32"
        }
      ],
      "payable": false,
      "stateMutability": "view",
      "type": "function"
    },
    {
      "constant": true,
      "inputs": [],
      "name": "nextIndex",
      "outputs": [
        {
          "internalType": "uint32",
          "name": "",
          "type": "uint32"
        }
      ],
      "payable": false,
      "stateMutability": "view",
      "type": "function"
    },
    {
      "constant": true,
      "inputs": [],
      "name": "rewardCurrentBlocknum",
      "outputs": [
        {
          "internalType": "uint32",
          "name": "",
          "type": "uint32"
        }
      ],
      "payable": false,
      "stateMutability": "view",
      "type": "function"
    },
    {
      "constant": true,
      "inputs": [],
      "name": "rewardCurrentRoot",
      "outputs": [
        {
          "internalType": "bytes32",
          "name": "",
          "type": "bytes32"
        }
      ],
      "payable": false,
      "stateMutability": "view",
      "type": "function"
    },
    {
      "constant": true,
      "inputs": [],
      "name": "rewardNextBlocknum",
      "outputs": [
        {
          "internalType": "uint32",
          "name": "",
          "type": "uint32"
        }
      ],
      "payable": false,
      "stateMutability": "view",
      "type": "function"
    },
    {
      "constant": true,
      "inputs": [],
      "name": "rewardNextRoot",
      "outputs": [
        {
          "internalType": "bytes32",
          "name": "",
          "type": "bytes32"
        }
      ],
      "payable": false,
      "stateMutability": "view",
      "type": "function"
    },
    {
      "constant": true,
      "inputs": [
        {
          "internalType": "uint256",
          "name": "",
          "type": "uint256"
        }
      ],
      "name": "roots",
      "outputs": [
        {
          "internalType": "bytes32",
          "name": "",
          "type": "bytes32"
        }
      ],
      "payable": false,
      "stateMutability": "view",
      "type": "function"
    },
    {
      "constant": true,
      "inputs": [
        {
          "internalType": "uint256",
          "name": "",
          "type": "uint256"
        }
      ],
      "name": "zeros",
      "outputs": [
        {
          "internalType": "bytes32",
          "name": "",
          "type": "bytes32"
        }
      ],
      "payable": false,
      "stateMutability": "view",
      "type": "function"
    },
    {
      "constant": true,
      "inputs": [
        {
          "internalType": "bytes32",
          "name": "_left",
          "type": "bytes32"
        },
        {
          "internalType": "bytes32",
          "name": "_right",
          "type": "bytes32"
        }
      ],
      "name": "hashLeftRight",
      "outputs": [
        {
          "internalType": "bytes32",
          "name": "",
          "type": "bytes32"
        }
      ],
      "payable": false,
      "stateMutability": "pure",
      "type": "function"
    },
    {
      "constant": true,
      "inputs": [
        {
          "internalType": "bytes32",
          "name": "_root",
          "type": "bytes32"
        }
      ],
      "name": "isKnownRoot",
      "outputs": [
        {
          "internalType": "bool",
          "name": "",
          "type": "bool"
        }
      ],
      "payable": false,
      "stateMutability": "view",
      "type": "function"
    },
    {
      "constant": true,
      "inputs": [
        {
          "internalType": "bytes32",
          "name": "_rroot",
          "type": "bytes32"
        }
      ],
      "name": "isRewardRoot",
      "outputs": [
        {
          "internalType": "bool",
          "name": "",
          "type": "bool"
        }
      ],
      "payable": false,
      "stateMutability": "view",
      "type": "function"
    },
    {
      "constant": true,
      "inputs": [],
      "name": "getLastRoot",
      "outputs": [
        {
          "internalType": "bytes32",
          "name": "",
          "type": "bytes32"
        }
      ],
      "payable": false,
      "stateMutability": "view",
      "type": "function"
    }
  ],
  "bytecode": "0x60806040526000600360006101000a81548163ffffffff021916908363ffffffff1602179055506000600360046101000a81548163ffffffff021916908363ffffffff16021790555034801561005457600080fd5b50604051610cda380380610cda8339818101604052604081101561007757600080fd5b81019080805190602001909291908051906020019092919050505060008263ffffffff16116100f1576040517f08c379a0000000000000000000000000000000000000000000000000000000008152600401808060200182810382526027815260200180610c916027913960400191505060405180910390fd5b60208263ffffffff1610610150576040517f08c379a0000000000000000000000000000000000000000000000000000000008152600401808060200182810382526022815260200180610cb86022913960400191505060405180910390fd5b816000806101000a81548163ffffffff021916908363ffffffff16021790555080606b60046101000a81548163ffffffff021916908363ffffffff16021790555060007f2fe54c60d3acabf3343a35b6eba15db4821b340f76e741e2249685ed4899af6c60001b9050600281908060018154018082558091505090600182039060005260206000200160009091929091909150555060018190806001815401808255809150509060018203906000526020600020016000909192909190915055506000600190505b6000809054906101000a900463ffffffff1663ffffffff168163ffffffff1610156102b45761024d828361034e60201b60201c565b9150600282908060018154018082558091505090600182039060005260206000200160009091929091909150555060018290806001815401808255809150509060018203906000526020600020016000909192909190915055508080600101915050610218565b506102c5818261034e60201b60201c565b60046000606481106102d357fe5b018190555060046000606481106102e657fe5b015460688190555043606960006101000a81548163ffffffff021916908363ffffffff160217905550600460006064811061031d57fe5b0154606a8190555043606b60006101000a81548163ffffffff021916908363ffffffff16021790555050505061049c565b6000606060026040519080825280602002602001820160405280156103825781602001602082028038833980820191505090505b5090508360001c8160008151811061039657fe5b6020026020010181815250508260001c816001815181106103b357fe5b602002602001018181525050600073__Hasher________________________________63c4420fb4836040518263ffffffff1660e01b81526004018080602001828103825283818151815260200191508051906020019060200280838360005b8381101561042e578082015181840152602081019050610413565b505050509050019250505060206040518083038186803b15801561045157600080fd5b505af4158015610465573d6000803e3d6000fd5b505050506040513d602081101561047b57600080fd5b810190808051906020019092919050505090508060001b9250505092915050565b6107e6806104ab6000396000f3fe608060405234801561001057600080fd5b506004361061010b5760003560e01c806390eeb02b116100a2578063cd87a3b411610071578063cd87a3b41461034a578063e829558814610374578063ec732959146103b6578063f178e47c146103d4578063fc7e9c6f146104165761010b565b806390eeb02b1461027a578063ba70f757146102a4578063c2b40ae4146102c2578063c526cb5f146103045761010b565b8063414a37ba116100de578063414a37ba146101ce5780634ecf518b146101ec5780636d9833e31461021657806383922d291461025c5761010b565b80632e2d40ce1461011057806338bf282e1461013a5780633a1fa643146101865780633ce0de9b146101a4575b600080fd5b610118610440565b604051808263ffffffff1663ffffffff16815260200191505060405180910390f35b6101706004803603604081101561015057600080fd5b810190808035906020019092919080359060200190929190505050610456565b6040518082815260200191505060405180910390f35b61018e6105a4565b6040518082815260200191505060405180910390f35b6101ac6105aa565b604051808263ffffffff1663ffffffff16815260200191505060405180910390f35b6101d66105c0565b6040518082815260200191505060405180910390f35b6101f46105e4565b604051808263ffffffff1663ffffffff16815260200191505060405180910390f35b6102426004803603602081101561022c57600080fd5b81019080803590602001909291905050506105f9565b604051808215151515815260200191505060405180910390f35b61026461069b565b6040518082815260200191505060405180910390f35b6102826106a1565b604051808263ffffffff1663ffffffff16815260200191505060405180910390f35b6102ac6106b7565b6040518082815260200191505060405180910390f35b6102ee600480360360208110156102d857600080fd5b81019080803590602001909291905050506106e5565b6040518082815260200191505060405180910390f35b6103306004803603602081101561031a57600080fd5b81019080803590602001909291905050506106fd565b604051808215151515815260200191505060405180910390f35b610352610730565b604051808263ffffffff1663ffffffff16815260200191505060405180910390f35b6103a06004803603602081101561038a57600080fd5b8101908080359060200190929190505050610735565b6040518082815260200191505060405180910390f35b6103be610756565b6040518082815260200191505060405180910390f35b610400600480360360208110156103ea57600080fd5b810190808035906020019092919050505061077a565b6040518082815260200191505060405180910390f35b61041e61079b565b604051808263ffffffff1663ffffffff16815260200191505060405180910390f35b606960009054906101000a900463ffffffff1681565b60006060600260405190808252806020026020018201604052801561048a5781602001602082028038833980820191505090505b5090508360001c8160008151811061049e57fe5b6020026020010181815250508260001c816001815181106104bb57fe5b602002602001018181525050600073__Hasher________________________________63c4420fb4836040518263ffffffff1660e01b81526004018080602001828103825283818151815260200191508051906020019060200280838360005b8381101561053657808201518184015260208101905061051b565b505050509050019250505060206040518083038186803b15801561055957600080fd5b505af415801561056d573d6000803e3d6000fd5b505050506040513d602081101561058357600080fd5b810190808051906020019092919050505090508060001b9250505092915050565b60685481565b606b60009054906101000a900463ffffffff1681565b7f30644e72e131a029b85045b68181585d2833e84879b9709143e1f593f000000181565b6000809054906101000a900463ffffffff1681565b60008060001b82141561060f5760009050610696565b6000600360009054906101000a900463ffffffff1690505b60048163ffffffff166064811061063a57fe5b015483141561064d576001915050610696565b60008163ffffffff16141561066157606490505b808060019003915050600360009054906101000a900463ffffffff1663ffffffff168163ffffffff1614156106275760009150505b919050565b606a5481565b600360009054906101000a900463ffffffff1681565b60006004600360009054906101000a900463ffffffff1663ffffffff16606481106106de57fe5b0154905090565b600481606481106106f257fe5b016000915090505481565b60008060001b821415610713576000905061072b565b606854821415610726576001905061072b565b600090505b919050565b606481565b6002818154811061074257fe5b906000526020600020016000915090505481565b7f2fe54c60d3acabf3343a35b6eba15db4821b340f76e741e2249685ed4899af6c81565b6001818154811061078757fe5b906000526020600020016000915090505481565b600360049054906101000a900463ffffffff168156fea265627a7a723158206ee634e20cf447d135e71a4e82ff3e25253b2ebc62fdcf6102ae1e1d35c6629864736f6c634300051100325f747265654c6576656c732073686f756c642062652067726561746572207468616e207a65726f5f747265654c6576656c732073686f756c64206265206c657373207468616e203332",
  "source": "pragma solidity ^0.5.17;\n\nlibrary Hasher {\n   function poseidon(uint256[] memory inputs) public pure returns (uint256 result);\n}\n\ncontract MerkleTreeWithHistory {\n  uint256 public constant FIELD_SIZE = 21888242871839275222246405745257275088548364400416034343698204186575808495617;\n  uint256 public constant ZERO_VALUE = 21663839004416932945382355908790599225266501822907911457504978515578255421292; // = keccak256(\"tornado\") % FIELD_SIZE\n\n  uint32 public levels;\n\n  // the following variables are made public for easier testing and debugging and\n  // are not supposed to be accessed in regular code\n  bytes32[] public filledSubtrees;\n  bytes32[] public zeros;\n  uint32 public currentRootIndex = 0;\n  uint32 public nextIndex = 0;\n  uint32 public constant ROOT_HISTORY_SIZE = 100;\n  bytes32[ROOT_HISTORY_SIZE] public roots;\n\n  // this tree stores two roots\n  bytes32 public rewardCurrentRoot;\n  uint32 public rewardCurrentBlocknum;\n  bytes32 public rewardNextRoot;\n  uint32 public rewardNextBlocknum;\n\n\n  // rewardRoot|--------blockcount-------|nextRewardRoot|----| \n  uint32 blockCount;\n\n  event RewardUpdate(uint32 updateAtBlock); \n\n  constructor(uint32 _treeLevels, uint32 _blockCount) public {\n    require(_treeLevels > 0, \"_treeLevels should be greater than zero\");\n    require(_treeLevels < 32, \"_treeLevels should be less than 32\");\n    levels = _treeLevels;\n\n    // new\n    blockCount= _blockCount; \n\n    bytes32 currentZero = bytes32(ZERO_VALUE);\n\n    zeros.push(currentZero);\n\n    filledSubtrees.push(currentZero);\n    \n    for (uint32 i = 1; i < levels; i++) {\n      currentZero = hashLeftRight(currentZero, currentZero);\n      zeros.push(currentZero);\n      filledSubtrees.push(currentZero);\n    }\n\n    roots[0] = hashLeftRight(currentZero, currentZero);\n\n    // new\n    rewardCurrentRoot=roots[0];\n    rewardCurrentBlocknum=uint32(block.number);\n\n    rewardNextRoot=roots[0];\n    rewardNextBlocknum=uint32(block.number);\n  }\n  // mimc\n//function hashLeftRight(bytes32 _left, bytes32 _right) public pure returns (bytes32) {\n//   require(uint256(_left) < FIELD_SIZE, \"_left should be inside the field\");\n//   require(uint256(_right) < FIELD_SIZE, \"_right should be inside the field\");\n//   uint256 R = uint256(_left);\n//   uint256 C = 0;\n//   (R, C) = Hasher.MiMCSponge(R, C);\n//   R = addmod(R, uint256(_right), FIELD_SIZE);\n//   (R, C) = Hasher.MiMCSponge(R, C);\n//   return bytes32(R);\n//}\n  // poseidon\n   function hashLeftRight(bytes32 _left, bytes32 _right) public pure returns (bytes32) {\n     uint256[] memory inputs = new uint256[](2);\n     inputs[0] = uint256(_left);\n     inputs[1] = uint256(_right);\n     uint256 output = Hasher.poseidon(inputs);\n     return bytes32(output);\n   }\n  function _insert(bytes32 _leaf) internal returns(uint32 index) {\n    uint32 currentIndex = nextIndex;\n    require(currentIndex != uint32(2)**levels, \"Merkle tree is full. No more leafs can be added\");\n    nextIndex += 1;\n    bytes32 currentLevelHash = _leaf;\n    bytes32 left;\n    bytes32 right;\n\n    for (uint32 i = 0; i < levels; i++) {\n      if (currentIndex % 2 == 0) {\n        left = currentLevelHash;\n        right = zeros[i];\n\n        filledSubtrees[i] = currentLevelHash;\n      } else {\n        left = filledSubtrees[i];\n        right = currentLevelHash;\n      }\n\n      currentLevelHash = hashLeftRight(left, right);\n\n      currentIndex /= 2;\n    }\n\n    currentRootIndex = (currentRootIndex + 1) % ROOT_HISTORY_SIZE;\n    roots[currentRootIndex] = currentLevelHash;\n\n    // [New] update roots\n    if ((uint32(block.number) - rewardNextBlocknum) >= blockCount) \n    {\n        rewardCurrentRoot = rewardNextRoot;\n        rewardNextRoot = currentLevelHash;    \n        rewardCurrentBlocknum = rewardNextBlocknum;\n        rewardNextBlocknum = uint32(block.number);\n        emit RewardUpdate(rewardCurrentBlocknum);\n    }\n\n    return nextIndex - 1;\n  }\n\n  /**\n    @dev Whether the root is present in the root history\n  */\n  function isKnownRoot(bytes32 _root) public view returns(bool) {\n    if (_root == 0) {\n      return false;\n    }\n    uint32 i = currentRootIndex;\n    do {\n      if (_root == roots[i]) {\n        return true;\n      }\n      if (i == 0) {\n        i = ROOT_HISTORY_SIZE;\n      }\n      i--;\n    } while (i != currentRootIndex);\n    return false;\n  }\n\n  // \n  function isRewardRoot(bytes32 _rroot) public view returns(bool)\n  {\n      if (_rroot == 0) {\n          return false;\n      }\n      if (_rroot == rewardCurrentRoot) {\n          return true;\n      }\n      return false;\n  }\n\n  /**\n    @dev Returns the last root\n  */\n  function getLastRoot() public view returns(bytes32) {\n    return roots[currentRootIndex];\n  }\n}\n",
  "sourcePath": "/home/devildeer/Documents/amr-prototype/amr-poseidon-clean/contracts/MerkleTreeWithHistory.sol",
  "compiler": {
    "name": "solc",
    "version": "0.5.17+commit.d19bba13.Emscripten.clang"
  },
  "schemaVersion": "3.2.3",
  "updatedAt": "2020-09-02T23:28:03.104Z",
  "devdoc": {
    "methods": {
      "getLastRoot()": {
        "details": "Returns the last root"
      },
      "isKnownRoot(bytes32)": {
        "details": "Whether the root is present in the root history"
      }
    }
  },
  "userdoc": {
    "methods": {}
  }
}